{
    "contractName": "ERC721",
    "abi": [
        {
            "anonymous": false,
            "inputs": [
                {
                    "indexed": true,
                    "internalType": "address",
                    "name": "_owner",
                    "type": "address"
                },
                {
                    "indexed": true,
                    "internalType": "address",
                    "name": "_approved",
                    "type": "address"
                },
                {
                    "indexed": false,
                    "internalType": "uint256",
                    "name": "_tokenId",
                    "type": "uint256"
                }
            ],
            "name": "Approval",
            "type": "event"
        },
        {
            "anonymous": false,
            "inputs": [
                {
                    "indexed": true,
                    "internalType": "address",
                    "name": "oldOwner",
                    "type": "address"
                },
                {
                    "indexed": true,
                    "internalType": "address",
                    "name": "newOnwer",
                    "type": "address"
                },
                {
                    "indexed": false,
                    "internalType": "uint256",
                    "name": "_tokenId",
                    "type": "uint256"
                }
            ],
            "name": "Transfer",
            "type": "event"
        },
        {
            "inputs": [
                {
                    "internalType": "address",
                    "name": "_to",
                    "type": "address"
                },
                {
                    "internalType": "uint256",
                    "name": "_tokenId",
                    "type": "uint256"
                }
            ],
            "name": "approve",
            "outputs": [],
            "stateMutability": "nonpayable",
            "type": "function"
        },
        {
            "inputs": [
                {
                    "internalType": "address",
                    "name": "_owner",
                    "type": "address"
                }
            ],
            "name": "balanceOf",
            "outputs": [
                {
                    "internalType": "uint256",
                    "name": "",
                    "type": "uint256"
                }
            ],
            "stateMutability": "view",
            "type": "function"
        },
        {
            "inputs": [],
            "name": "name",
            "outputs": [
                {
                    "internalType": "string",
                    "name": "",
                    "type": "string"
                }
            ],
            "stateMutability": "pure",
            "type": "function"
        },
        {
            "inputs": [
                {
                    "internalType": "uint256",
                    "name": "_tokenId",
                    "type": "uint256"
                }
            ],
            "name": "ownerOf",
            "outputs": [
                {
                    "internalType": "address",
                    "name": "",
                    "type": "address"
                }
            ],
            "stateMutability": "view",
            "type": "function"
        },
        {
            "inputs": [],
            "name": "symbol",
            "outputs": [
                {
                    "internalType": "string",
                    "name": "",
                    "type": "string"
                }
            ],
            "stateMutability": "pure",
            "type": "function"
        },
        {
            "inputs": [
                {
                    "internalType": "uint256",
                    "name": "_tokenId",
                    "type": "uint256"
                }
            ],
            "name": "takeOwnership",
            "outputs": [],
            "stateMutability": "nonpayable",
            "type": "function"
        },
        {
            "inputs": [],
            "name": "totalSupply",
            "outputs": [
                {
                    "internalType": "uint256",
                    "name": "",
                    "type": "uint256"
                }
            ],
            "stateMutability": "view",
            "type": "function"
        },
        {
            "inputs": [
                {
                    "internalType": "address",
                    "name": "_to",
                    "type": "address"
                },
                {
                    "internalType": "uint256",
                    "name": "_tokenId",
                    "type": "uint256"
                }
            ],
            "name": "transfer",
            "outputs": [],
            "stateMutability": "nonpayable",
            "type": "function"
        }
    ],
    "bytecode": "6080604052633b9aca0060005534801561001857600080fd5b5061069e806100286000396000f3fe608060405234801561001057600080fd5b50600436106100885760003560e01c806370a082311161005b57806370a082311461011357806395d89b411461013c578063a9059cbb1461015d578063b2e6ceeb1461017057600080fd5b806306fdde031461008d578063095ea7b3146100c157806318160ddd146100d65780636352211e146100e8575b600080fd5b60408051808201909152600681526545524337323160d01b60208201525b6040516100b89190610532565b60405180910390f35b6100d46100cf3660046105a3565b610183565b005b6000545b6040519081526020016100b8565b6100fb6100f63660046105cd565b61021e565b6040516001600160a01b0390911681526020016100b8565b6100da6101213660046105e6565b6001600160a01b031660009081526001602052604090205490565b604080518082019091526005815264426c61636b60d81b60208201526100ab565b6100d461016b3660046105a3565b610255565b6100d461017e3660046105cd565b610389565b61018c8161021e565b6001600160a01b0316336001600160a01b0316146101a957600080fd5b336001600160a01b03831614156101bf57600080fd5b3360008181526004602090815260408083206001600160a01b03871680855290835292819020859055518481529192917f8c5be1e5ebec7d5bd14f71427d1e84f3dd0314c0f7b2291e5b200ac8c7c3b925910160405180910390a35050565b60008181526003602052604081205460ff1661023957600080fd5b506000908152600260205260409020546001600160a01b031690565b6000818152600360205260409020543390839060ff1661027457600080fd5b61027d8361021e565b6001600160a01b0316826001600160a01b03161461029a57600080fd5b6001600160a01b0381166102ad57600080fd5b6102b782846104ca565b6001600160a01b038216600090815260016020819052604082208054919290916102e290849061061e565b9091555050600083815260026020908152604080832080546001600160a01b0319166001600160a01b0386169081179091558352600191829052822080549192909161032f908490610635565b92505081905550806001600160a01b0316826001600160a01b03167fddf252ad1be2c89b69c2b068fc378daa952ba7f163c4a11628f55a4df523b3ef8560405161037b91815260200190565b60405180910390a350505050565b60008181526003602052604090205460ff166103a457600080fd5b60006103af8261021e565b9050336001600160a01b0382168114156103c857600080fd5b6001600160a01b0380831660009081526004602090815260408083209385168352929052205483146103f957600080fd5b6001600160a01b0382166000908152600160208190526040822080549192909161042490849061061e565b9091555050600083815260026020908152604080832080546001600160a01b0319166001600160a01b03861690811790915583526001918290528220805491929091610471908490610635565b92505081905550806001600160a01b0316826001600160a01b03167fddf252ad1be2c89b69c2b068fc378daa952ba7f163c4a11628f55a4df523b3ef856040516104bd91815260200190565b60405180910390a3505050565b60005b6001600160a01b0383166000908152600560209081526040808320848452909152902054821461052d576001600160a01b0383166000908152600560209081526040808320848452909152812055806105258161064d565b9150506104cd565b505050565b600060208083528351808285015260005b8181101561055f57858101830151858201604001528201610543565b81811115610571576000604083870101525b50601f01601f1916929092016040019392505050565b80356001600160a01b038116811461059e57600080fd5b919050565b600080604083850312156105b657600080fd5b6105bf83610587565b946020939093013593505050565b6000602082840312156105df57600080fd5b5035919050565b6000602082840312156105f857600080fd5b61060182610587565b9392505050565b634e487b7160e01b600052601160045260246000fd5b60008282101561063057610630610608565b500390565b6000821982111561064857610648610608565b500190565b600060001982141561066157610661610608565b506001019056fea2646970667358221220a7306a7265687328357580cf4e26c5c4c86b8d4fb610beeee76d50fc503e2da264736f6c63430008090033",
    "sourcePath": "/home/akhilesh/Desktop/block_chain_flow/ERC721TOken/contracts/ERC721.sol",
    "compiler": {
        "name": "solc",
        "version": "0.8.9+commit.e5eed63a"
    },
    "functionHashes": {
        "approve(address,uint256)": "095ea7b3",
        "balanceOf(address)": "70a08231",
        "name()": "06fdde03",
        "ownerOf(uint256)": "6352211e",
        "symbol()": "95d89b41",
        "takeOwnership(uint256)": "b2e6ceeb",
        "totalSupply()": "18160ddd",
        "transfer(address,uint256)": "a9059cbb"
    },
    "gasEstimates": {
        "creation": {
            "codeDepositCost": "338800",
            "executionCost": "22480",
            "totalCost": "361280"
        },
        "external": {
            "approve(address,uint256)": "28942",
            "balanceOf(address)": "2537",
            "name()": "infinite",
            "ownerOf(uint256)": "4747",
            "symbol()": "infinite",
            "takeOwnership(uint256)": "84194",
            "totalSupply()": "2326",
            "transfer(address,uint256)": "infinite"
        },
        "internal": {
            "removeFromTokenList(address,uint256)": "infinite"
        }
    }
}